:020000040800F2
:1010000008040020451100084D1100084F11000888
:10101000511100085311000855110008000000008C
:101020000000000000000000000000005711000850
:1010300059110008000000005B1100085D11000854
:101040005F1100085F1100085F1100085F110008C0
:101050005F1100085F1100085F1100085F110008B0
:101060005F1100085F1100085F1100085F110008A0
:101070005F1100085F1100085F1100085F11000890
:101080005F1100085F1100085F1100085F11000880
:101090005F1100085F1100085F1100085F11000870
:1010A0005F1100085F1100085F1100085F11000860
:1010B0005F1100085F1100085F1100085F11000850
:1010C0005F1100085F1100085F1100085F11000840
:1010D0005F1100085F1100085F1100085F11000830
:1010E0005F1100085F1100085F1100085F11000820
:1010F0005F1100085F1100085F1100085F11000810
:101100005F1100085F1100085F1100085F110008FF
:101110005F1100085F1100085F1100085F110008EF
:101120005F1100085F1100085F1100085F110008DF
:10113000DFF80CD000F018F8004800476D130008E5
:10114000080400200648804706480047FEE7FEE7FF
:10115000FEE7FEE7FEE7FEE7FEE7FEE7FEE7FEE767
:101160007512000831110008064C074D06E0E068D2
:1011700040F0010394E8070098471034AC42F6D3DE
:10118000FFF7DAFF7C1300089C13000810B500F08D
:1011900001F810BD0CB500200190009033480068A4
:1011A00040F480303149086000BF3048006800F4E6
:1011B000003000900198401C0190009818B90198E7
:1011C000B0F5A06FF1D12948006800F4003010B1EB
:1011D0000120009001E0002000900098012843D1F8
:1011E0002348006840F01000214908600846006864
:1011F00020F0070008600846006840F00200086020
:101200001A484068194948600846406848600846DE
:10121000406840F4806048600846406820F47C10D4
:1012200048600846406840F4E81048600846006896
:1012300040F08070086000BF0C48006800F000704B
:101240000028F9D00948406820F0030007494860A9
:101250000846406840F00200486000BF034840680C
:1012600000F00C000828F9D10CBD0000001002406D
:101270000020024010B51348006840F001001149F9
:10128000086008464068104908400E494860084612
:1012900000680E4908400B4908600846006820F4C1
:1012A000802008600846406820F4FE0048604FF443
:1012B0001F008860FFF76AFF4FF000600449086074
:1012C00010BD0000001002400000FFF8FFFFF6FE16
:1012D00008ED00E000BF0549098801F08001002900
:1012E000F9D00249091D088070470000003801400C
:1012F00010B503460C46002204E0985CFFF7EAFFB5
:10130000501CC2B2A242F8DB10BD0000014A0249E3
:1013100000F013B85D1300080000002002E008C8C8
:10132000121F08C1002AFAD170477047002001E05F
:1013300001C1121F002AFBD170472DE9F04116466A
:101340000F460446002503E03946B047641C6D1C77
:1013500020780028F8D12846BDE8F08113B50C4666
:1013600001216846FFF7C4FF00981CBD02A0FFF7EB
:10137000CDFF00BFFEE70000363636009C130008A4
:1013800000000020040000001C130008A013000847
:1013900004000020040400002C13000800000000DA
:0400000508001131AD
:00000001FF
